:04000000020029329F
:01000B0032C2
:0100130032BA
:01001B0032B2
:030023000201A631
:10008200E4F508F509F54AF54BF54CF54D02002665
:030026000202A92A
:10009200AE82AF83E4F54EF54FC3E54E9EE54F9F2A
:1000A200500FAC4EAD4F74012CF54EE43DF54F8030
:1000B200E822AE82AF838E807C0074085F4C24FFFE
:1000C20092B774045F4C24FF92B674025F4C24FF13
:1000D20092B57E00530701EE4F24FF92B422AF8205
:1000E20074A755A0FE74585F4EF5A022AD82AE8370
:1000F200AFF0D2A0D2A2D2A77590FF758200C0073E
:10010200C006C0051200E0D005D006D0077B307CC7
:10011200008B018C02C3E99440EA940050428B8226
:100122008C83C007C006C005C004C0031200B4908F
:1001320000C8120092C2A79000C8120092D003D049
:1001420004D005D006D0078D828E838FF0E5901201
:1001520002BFA3AD82AE83D2A70BBB00B40C80B1A9
:1001620022AE82AF83AB4FAC50AD517A00C3EA9559
:100172004E501CEA2EF582E43FF583E493F98B821C
:100182008C838DF01202BFA3AB82AC830A80DE2285
:10019200D29EC29F4387C0438920758DFFD28ED2E3
:1001A200ACD29C22C0E0C007C001C000C0D075D054
:1001B20000C2AF309F09E54D04F54DC29F8031105A
:1001C2009802801274E8254A400CE54AFF04F54A79
:1001D200EF240AF8A699209904E54B6011C299E52B
:1001E2004B600BE54B14FF8F4B2422F98799D2AF5A
:1001F200D0D0D000D001D007D0E032E54A70012241
:10020200C2AFAF0ABF46028020BF5002800DBF526C
:10021200028026BF5302806B02029B752250754AF0
:1002220000754B01D2990202A6752346854D2275AF
:100232004A00754B02D299806B74FC254A5065E5E1
:100242000D24EF500D752245754A00754B01D29968
:100252008052754A00850D4BAF0C7E00AC0B7D00C1
:10026200EC4206ED42078E088F09754F2275500049
:10027200755140854B4E850882850983120163D2F0
:10028200998021754A00754B117522539000237590
:10029200F0401200EED299800B75224E754A00751D
:1002A2004B01D299D2AF22120192D2A0D2A1D2A2F4
:0D02B2007590FFD2AF4387011201FD80F867
:06005800E478FFF6D8FD7C
:100036007900E94400601B7A009002DE780175A021
:1000460000E493F2A308B8000205A0D9F4DAF27529
:02005600A0FF09
:1002BF0020F71130F6138883A88220F509F6A8835A
:0B02CF007583002280FEF280F5F02213
:10005E007800E84400600A790175A000E4F309D83D
:10006E00FC7800E84400600C7900900001E4F0A3F5
:04007E00D8FCD9FAD7
:0D0029007581511202DAE5826003020026A3
:0402DA007582002207
:00000001FF
