:04000000020029329F
:01000B0032C2
:0100130032BA
:01001B0032B2
:030023000200A731
:0300820002002653
:030026000200AA2B
:10008500AE82AF83E4F508F509C3E5089EE5099F4F
:10009500500FAC08AD0974012CF508E43DF5098055
:1000A500E822C2AF32D29E4387C0438920758DF3C3
:1000B500D28ED2AC7F00D2AF8F990F438701C29900
:0200C50080F4C5
:06005800E478FFF6D8FD7C
:100036007900E94400601B7A009000CB780175A036
:1000460000E493F2A308B8000205A0D9F4DAF27529
:02005600A0FF09
:10005E007800E84400600A790175A000E4F309D83D
:10006E00FC7800E84400600C7900900001E4F0A3F5
:04007E00D8FCD9FAD7
:0D0029007581091200C7E582600302002600
:0400C700758200221C
:00000001FF
