:04000000020029329F
:01000B0032C2
:0100130032BA
:01001B0032B2
:030023000200F7E1
:10008200E4F508F509F54AF54BF54CF54D02002665
:030026000201DBF9
:10009200AE82AF83E4F54EF54FC3E54E9EE54F9F2A
:1000A200500FAC4EAD4F74012CF54EE43DF54F8030
:1000B200E822AE82AF83AB4FAC50AD517A00C3EAB7
:1000C200954E501CEA2EF582E43FF583E493F98BBA
:1000D200828C838DF01201EAA3AB82AC830A80DEAC
:1000E20022D29EC29F4387C0438920758DFFD28E44
:1000F200D2ACD29C22C0E0C007C001C000C0D07503
:10010200D000C2AF309F09E54D04F54DC29F80314A
:10011200109802801274E8254A400CE54AFF04F563
:100122004AEF240AF8A699209904E54B6011C29976
:10013200E54B600BE54B14FF8F4B2422F98799D2D4
:10014200AFD0D0D000D001D007D0E032E54A700164
:1001520022C2AFAF0ABF46028017BF50028005BF5E
:100162005269801D752250754A00754B01D29980E3
:1001720065752346854D22754A00754B02D29980DA
:100182005574FC254A504FE50D24EF500D7522455C
:10019200754A00754B01D299803C754A00850D4B1A
:1001A200AF0C7E00AC0B7D00EC4206ED42078E08E0
:1001B2008F09754F22755000755140854B4E850849
:1001C200828509831200B4D299800B75224E754A3A
:1001D20000754B01D299D2AF221200E3C2A0D2AF76
:0801E20043870112014E80F871
:06005800E478FFF6D8FD7C
:100036007900E94400601B7A00900209780175A0F6
:1000460000E493F2A308B8000205A0D9F4DAF27529
:02005600A0FF09
:1001EA0020F71130F6138883A88220F509F6A88330
:0B01FA007583002280FEF280F5F022E9
:10005E007800E84400600A790175A000E4F309D83D
:10006E00FC7800E84400600C7900900001E4F0A3F5
:04007E00D8FCD9FAD7
:0D002900758151120205E582600302002678
:0402050075820022DC
:00000001FF
