:03000000020006F5
:03005F0002000399
:0300030002008474
:10006200AE82AF83E4F508F509C3E5089EE5099F72
:10007200500FAC08AD0974012CF508E43DF5098078
:10008200E822D29E4387C0438920758DF3D28E7FAA
:09009200008F990F1099FA80FB10
:06003500E478FFF6D8FD9F
:100013007900E94400601B7A0090009F780175A085
:1000230000E493F2A308B8000205A0D9F4DAF2754C
:02003300A0FF2C
:10003B007800E84400600A790175A000E4F309D860
:10004B00FC7800E84400600C7900900001E4F0A318
:04005B00D8FCD9FAFA
:0D00060075810912009BE582600302000372
:04009B007582002248
:00000001FF
