:04000000020029329F
:01000B0032C2
:0100130032BA
:01001B0032B2
:0300230002019740
:10008200E4F508F509F54AF54BF54CF54D02002665
:0300260002029A39
:10009200AE82AF83E4F54EF54FC3E54E9EE54F9F2A
:1000A200500FAC4EAD4F74012CF54EE43DF54F8030
:1000B200E822AE82AF838E807C0074085F4C24FFFE
:1000C20092B774045F4C24FF92B674025F4C24FF13
:1000D20092B57E00530701EE4F24FF92B422AF8205
:1000E200742755A0FE74D85F4EF5A022AD82AE8370
:1000F200AFF0D2A0D2A2758200C007C006C005121E
:1001020000E0D005D006D0077B307C008B018C024A
:10011200C3E99433EA940050388B828C83C007C0C1
:1001220006C005C004C0031200B49000C8120092B9
:10013200D003D004D005D006D0078D828E838FF0F5
:10014200E5901202A9A3AD82AE830BBB00BE0C8068
:10015200BB22AE82AF83AB4FAC50AD517A00C3EA43
:10016200954E501CEA2EF582E43FF583E493F98B19
:10017200828C838DF01202A9A3AB82AC830A80DE4B
:1001820022D29EC29F4387C0438920758DFFD28EA3
:10019200D2ACD29C22C0E0C007C001C000C0D07562
:1001A200D000C2AF309F09E54D04F54DC29F8031AA
:1001B200109802801274E8254A400CE54AFF04F5C3
:1001C2004AEF240AF8A699209904E54B6011C299D6
:1001D200E54B600BE54B14FF8F4B2422F98799D234
:1001E200AFD0D0D000D001D007D0E032E54A7001C4
:1001F20022C2AFAF0ABF46028020BF5002800DBFAD
:1002020052028026BF5302806B02028C7522507507
:100212004A00754B01D299020297752346854D22F9
:10022200754A00754B02D299806B74FC254A506561
:10023200E50D24EF500D752245754A00754B01D22C
:10024200998052754A00850D4BAF0C7E00AC0B7D38
:1002520000EC4206ED42078E088F09754F22755059
:1002620000755140854B4E850882850983120154E1
:10027200D2998021754A00754B0475225390002350
:1002820075F0401200EED299800B75224E754A002D
:10029200754B01D299D2AF22120183C2A0D2AF43D1
:0702A20087011201EE80F854
:06005800E478FFF6D8FD7C
:100036007900E94400601B7A009002C8780175A037
:1000460000E493F2A308B8000205A0D9F4DAF27529
:02005600A0FF09
:1002A90020F71130F6138883A88220F509F6A88370
:0B02B9007583002280FEF280F5F02229
:10005E007800E84400600A790175A000E4F309D83D
:10006E00FC7800E84400600C7900900001E4F0A3F5
:04007E00D8FCD9FAD7
:0D0029007581511202C4E5826003020026B9
:0402C400758200221D
:00000001FF
