:04000000020029329F
:01000B0032C2
:0100130032BA
:01001B0032B2
:030023000201AC2B
:10008200E4F508F509F54AF54BF54CF54D02002665
:03002600020307CB
:10009200AE82AF83E4F551F552C3E5519EE5529F1E
:1000A200500FAC51AD5274012CF551E43DF5528024
:1000B200E822AE82AF838E807C0074085F4C24FFFE
:1000C20092B774045F4C24FF92B674025F4C24FF13
:1000D20092B57E00530701EE4F24FF92B422AF8205
:1000E20074A755A0FE74585F4EF5A022AD82AE8370
:1000F200AFF0D2A2D2A1D2A77590FFAB4FAC50C045
:1001020005C006C007A94E7A00A84FAF50E928F8EB
:10011200EA3FFF8B058C06C3ED98EE9FD007D00611
:10012200D00550428B828C83C007C006C005C00434
:10013200C0031200B4D2A7900014120092C2A7907A
:100142000014120092D003D004D005D006D0078D3F
:10015200828E838FF0E59012031BA3AD82AE830BD8
:10016200BB009C0C809922AE82AF83AB52AC53ADE4
:10017200547A00C3EA9551501CEA2EF582E43FF509
:1001820083E493F98B828C838DF012031BA3AB82E1
:10019200AC830A80DE22D29EC29F4387C04389205D
:1001A200758DFFD28ED2ACD29C22C0E0C007C001B6
:1001B200C000C0D075D000C2AF309F09E54D04F534
:1001C2004DC29F8031109802801274E8254A400C7B
:1001D200E54AFF04F54AEF240AF8A699209904E5B6
:1001E2004B6011C299E54B600BE54B14FF8F4B241A
:1001F20022F98799D2AFD0D0D000D001D007D0E079
:1002020032E54A700122C2AFAF0ABF43030202B70E
:10021200BF46028021BF4F03020298BF50028008EE
:10022200BF520280220202F9752250754A00754BB4
:1002320001D299020304752346854D22754A007541
:100242004B02D29902030474FC254A4003020304C0
:10025200E50D24EF500E752245754A00754B01D20B
:1002620099020304754A00850D4BAF0C7E00AC0B5E
:100272007D00EC4206ED42078E088F097552227509
:100282005300755440854B518508828509831201BC
:1002920069D29902030474FE254A5066850B8212C4
:1002A20000E0754B0275224FE5A05458F523754ABC
:1002B20000D299804D74FC254A5047E50D24EF5039
:1002C2000B752245754A00754B018027754A0075EA
:1002D2002243E50D04F54BAF0C7E00AC0B7D00EC28
:1002E2004EF54FED4FF550854B4E90002375F04083
:1002F2001200EED299800B75224E754A00754B01A1
:10030200D299D2AF22120198D2A1D2A27590FFD275
:09031200AF43870112020380F8D9
:06005800E478FFF6D8FD7C
:100036007900E94400601B7A0090033A780175A0C4
:1000460000E493F2A308B8000205A0D9F4DAF27529
:02005600A0FF09
:10031B0020F71130F6138883A88220F509F6A883FD
:0B032B007583002280FEF280F5F022B6
:10005E007800E84400600A790175A000E4F309D83D
:10006E00FC7800E84400600C7900900001E4F0A3F5
:04007E00D8FCD9FAD7
:0D002900758154120336E582600302002643
:0403360075820022AA
:00000001FF
