:04000000020029329F
:01000B0032C2
:0100130032BA
:01001B0032B2
:030023000200F7E1
:10008200E4F508F509F54AF54BF54CF54D02002665
:0300260002014E86
:10009200AE82AF83E4F54EF54FC3E54E9EE54F9F2A
:1000A200500FAC4EAD4F74012CF54EE43DF54F8030
:1000B200E822AE82AF83AB4FAC50AD517A00C3EAB7
:1000C200954E501CEA2EF582E43FF583E493F98BBA
:1000D200828C838DF01201A2A3AB82AC830A80DEF4
:1000E20022D29EC29F4387C0438920758DF3D28E50
:1000F200D2ACD29C22C0E0C007C001C000C0D07503
:10010200D000C2AF309F09E54D04F54DC29F80314A
:10011200109802801274E8254A400CE54AFF04F563
:100122004AEF240AF8A699209904E54B6011C29976
:10013200E54B600BE54B14FF8F4B2422F98799D2D4
:10014200AFD0D0D000D001D007D0E0321200E3C24D
:10015200A0D2AF43870174FC254A50F7E54B70F3F8
:10016200C2AF754A007452B50A32E50D24EF402C35
:10017200850D4BAF0C7E00AC0B7D00EC4206ED42D0
:10018200078E088F09754F22755000755140854BB7
:100192004E8508828509831200B4D299D2AF80B30A
:06005800E478FFF6D8FD7C
:100036007900E94400601B7A009001C1780175A03F
:1000460000E493F2A308B8000205A0D9F4DAF27529
:02005600A0FF09
:1001A20020F71130F6138883A88220F509F6A88378
:0B01B2007583002280FEF280F5F02231
:10005E007800E84400600A790175A000E4F309D83D
:10006E00FC7800E84400600C7900900001E4F0A3F5
:04007E00D8FCD9FAD7
:0D0029007581511201BDE5826003020026C1
:0401BD007582002225
:00000001FF
