:04000000020029329F
:01000B0032C2
:0100130032BA
:01001B0032B2
:03002300020235A1
:10008200E4F508F509F54AF54BF54CF54D02002665
:030026000203854D
:10009200AE82AF83E4F551F552C3E5519EE5529F1E
:1000A200500FAC51AD5274012CF551E43DF5528024
:1000B200E822AE82AF838E807C0074085F4C24FFFE
:1000C20092B774045F4C24FF92B674025F4C24FF13
:1000D20092B57E00530701EE4F24FF92B422AF8205
:1000E20074A755A0FE74585F4EF5A022AD82AE8370
:1000F200AFF0D2A0D2A2D2A77590FF758218C00726
:10010200C006C0051200E0D005D006D007AB4FAC48
:1001120050C005C006C007A94E7A00A84FAF50E9EB
:1001220028F8EA3FFF8B058C06C3ED98EE9FD007B7
:10013200D006D00550428B828C83C007C006C00512
:10014200C004C0031200B4D2A7900014120092C2DD
:10015200A7900014120092D003D004D005D006D08C
:10016200078D828E838FF0E59012039BA3AD82AE42
:10017200830BBB009C0C809922AD82AE83AFF0D280
:10018200A0D2A2D2A1D2A77590FF758200C007C0EB
:1001920006C0051200E0D005D006D0077B307C00F7
:1001A2008B018C02C3E99433EA940050428B828C17
:1001B20083C007C006C005C004C0031200B490008B
:1001C20014120092C2A7900014120092D003D0041D
:1001D200D005D006D0078D828E838FF0E590120372
:1001E2009BA3AD82AE83D2A70BBB00B40C80B1221D
:1001F200AE82AF83AB52AC53AD547A00C3EA955191
:10020200501CEA2EF582E43FF583E493F98B828C4D
:10021200838DF012039BA3AB82AC830A80DE22D2D1
:100222009EC29F4387C0438920758DFFD28ED2AC78
:10023200D29C22C0E0C007C001C000C0D075D0006F
:10024200C2AF309F09E54D04F54DC29F8031109831
:1002520002801274E8254A400CE54AFF04F54AEF91
:10026200240AF8A699209904E54B6011C299E54B3E
:10027200600BE54B14FF8F4B2422F98799D2AFD044
:10028200D0D000D001D007D0E032E54A700122C2BE
:10029200AFAF0ABF4303020335BF46028020BF50FF
:1002A20002800DBF52028027BF5302807002037783
:1002B200752250754A00754B01D29902038275234B
:1002C20046854D22754A00754B02D299020382740B
:1002D200FC254A4003020382E50D24EF500E7522ED
:1002E20045754A00754B01D299020382754A008511
:1002F2000D4BAF0C7E00AC0B7D00EC4206ED4207CD
:100302008E088F09755222755300755440854B51E2
:100312008508828509831201F2D2998063754A00A9
:10032200754B0475225390002375F04012017BD265
:1003320099804D74FC254A5047E50D24EF500B750A
:100342002245754A00754B018027754A0075224384
:10035200E50D04F54BAF0C7E00AC0B7D00EC4EF5C9
:100362004FED4FF550854B4E90002375F040120033
:10037200EED299800B75224E754A00754B01D299C7
:10038200D2AF22120221D2A0D2A1D2A27590FFD264
:09039200AF43870112028C80F8D0
:06005800E478FFF6D8FD7C
:100036007900E94400601B7A009003BA780175A044
:1000460000E493F2A308B8000205A0D9F4DAF27529
:02005600A0FF09
:10039B0020F71130F6138883A88220F509F6A8837D
:0B03AB007583002280FEF280F5F02236
:10005E007800E84400600A790175A000E4F309D83D
:10006E00FC7800E84400600C7900900001E4F0A3F5
:04007E00D8FCD9FAD7
:0D0029007581541203B6E5826003020026C3
:0403B600758200222A
:00000001FF
