:04000000020029329F
:01000B0032C2
:0100130032BA
:01001B0032B2
:030023000200A731
:0300820002002653
:030026000200AA2B
:10008500AE82AF83E4F508F509C3E5089EE5099F4F
:10009500500FAC08AD0974012CF508E43DF5098055
:1000A500E822C2AF32750800D29E4387C04389203B
:1000B500758DF3D28ED2ACD29CC2A07E007F00D2C9
:1000C500AF438701109802800A750801D2A075997F
:1000D5003A80EC10990280E7E50860E38E828F8311
:1000E500E493F599A3AE82AF83C3EE94FFEF94FF3B
:0600F500E433F50880C9A8
:06005800E478FFF6D8FD7C
:100036007900E94400601B7A009000FF780175A002
:1000460000E493F2A308B8000205A0D9F4DAF27529
:02005600A0FF09
:10005E007800E84400600A790175A000E4F309D83D
:10006E00FC7800E84400600C7900900001E4F0A3F5
:04007E00D8FCD9FAD7
:0D0029007581091200FBE5826003020026CC
:0400FB0075820022E8
:00000001FF
