:04000000020029329F
:01000B0032C2
:0100130032BA
:01001B0032B2
:030023000201AC2B
:10008200E4F508F509F54AF54BF54CF54D02002665
:03002600020310C2
:10009200AE82AF83E4F551F552C3E5519EE5529F1E
:1000A200500FAC51AD5274012CF551E43DF5528024
:1000B200E822AE82AF838E807C0074085F4C24FFFE
:1000C20092B774045F4C24FF92B674025F4C24FF13
:1000D20092B57E00530701EE4F24FF92B422AF8205
:1000E20074A755A0FE74585F4EF5A022AD82AE8370
:1000F200AFF0D2A2D2A1D2A77590FFAB4FAC50C045
:1001020005C006C007A94E7A00A84FAF50E928F8EB
:10011200EA3FFF8B058C06C3ED98EE9FD007D00611
:10012200D00550428B828C83C007C006C005C00434
:10013200C0031200B4D2A7900014120092C2A7907A
:100142000014120092D003D004D005D006D0078D3F
:10015200828E838FF0E590120324A3AD82AE830BCF
:10016200BB009C0C809922AE82AF83AB52AC53ADE4
:10017200547A00C3EA9551501CEA2EF582E43FF509
:1001820083E493F98B828C838DF0120324A3AB82D8
:10019200AC830A80DE22D29EC29F4387C04389205D
:1001A200758DFFD28ED2ACD29C22C0E0C007C001B6
:1001B200C000C0D075D000C2AF309F127401254D6F
:1001C2004005E54D04F54DC29FC298754A0010984E
:1001D20002801274E8254A400CE54AFF04F54AEF12
:1001E200240AF8A699209904E54B6011C299E54BBF
:1001F200600BE54B14FF8F4B2422F98799D2AFD0C5
:10020200D0D000D001D007D0E032E54A700122C23E
:10021200AFAF0ABF43030202C0BF46028021BF4FF5
:10022200030202A1BF50028008BF520280220203D1
:1002320002752250754A00754B01D29902030D7561
:100242002346854D22754A00754B02D29902030D51
:1002520074FC254A400302030DE50D24EF500E7590
:100262002245754A00754B01D29902030D754A0069
:10027200850D4BAF0C7E00AC0B7D00EC4206ED42CF
:10028200078E088F09755222755300755440854BAD
:1002920051850882850983120169D29902030D747E
:1002A200FE254A5066850B821200E0754B027522CC
:1002B2004FE5A05458F523754A00D299804D74FC3D
:1002C200254A5047E50D24EF500B752245754A002B
:1002D200754B018027754A00752243E50D04F54BE5
:1002E200AF0C7E00AC0B7D00EC4EF54FED4FF550A0
:1002F200854B4E90002375F0401200EED299800B90
:1003020075224E754A00754B01D299D2AF22120165
:1003120098D2A1D2A27590FFD2AF43870112020CEC
:0203220080F861
:06005800E478FFF6D8FD7C
:100036007900E94400601B7A00900343780175A0BB
:1000460000E493F2A308B8000205A0D9F4DAF27529
:02005600A0FF09
:1003240020F71130F6138883A88220F509F6A883F4
:0B0334007583002280FEF280F5F022AD
:10005E007800E84400600A790175A000E4F309D83D
:10006E00FC7800E84400600C7900900001E4F0A3F5
:04007E00D8FCD9FAD7
:0D00290075815412033FE58260030200263A
:04033F0075820022A1
:00000001FF
